{
  "_format": "hh-sol-artifact-1",
  "contractName": "mycontract",
  "sourceName": "contracts/mycontract.sol",
  "abi": [
    {
      "inputs": [],
      "stateMutability": "nonpayable",
      "type": "constructor"
    },
    {
      "inputs": [
        {
          "internalType": "string",
          "name": "_property_location",
          "type": "string"
        },
        {
          "internalType": "string",
          "name": "_newipfslink",
          "type": "string"
        }
      ],
      "name": "allot_property",
      "outputs": [],
      "stateMutability": "nonpayable",
      "type": "function"
    },
    {
      "inputs": [
        {
          "internalType": "address",
          "name": "userAddr",
          "type": "address"
        }
      ],
      "name": "get_all_property_details",
      "outputs": [
        {
          "internalType": "string[][]",
          "name": "",
          "type": "string[][]"
        }
      ],
      "stateMutability": "view",
      "type": "function"
    },
    {
      "inputs": [
        {
          "internalType": "address",
          "name": "userAddr",
          "type": "address"
        }
      ],
      "name": "get_all_property_index",
      "outputs": [
        {
          "internalType": "uint256[]",
          "name": "",
          "type": "uint256[]"
        }
      ],
      "stateMutability": "view",
      "type": "function"
    },
    {
      "inputs": [
        {
          "internalType": "address",
          "name": "userAddr",
          "type": "address"
        }
      ],
      "name": "get_all_property_owners_addresses",
      "outputs": [
        {
          "internalType": "address[][]",
          "name": "",
          "type": "address[][]"
        }
      ],
      "stateMutability": "view",
      "type": "function"
    },
    {
      "inputs": [
        {
          "internalType": "address",
          "name": "userAddr",
          "type": "address"
        }
      ],
      "name": "get_current_property_index",
      "outputs": [
        {
          "internalType": "uint256",
          "name": "",
          "type": "uint256"
        }
      ],
      "stateMutability": "view",
      "type": "function"
    },
    {
      "inputs": [
        {
          "internalType": "address",
          "name": "userAddr",
          "type": "address"
        },
        {
          "internalType": "uint256",
          "name": "index",
          "type": "uint256"
        }
      ],
      "name": "get_property_details",
      "outputs": [
        {
          "internalType": "string[]",
          "name": "",
          "type": "string[]"
        }
      ],
      "stateMutability": "view",
      "type": "function"
    },
    {
      "inputs": [
        {
          "internalType": "address",
          "name": "userAddr",
          "type": "address"
        },
        {
          "internalType": "uint256",
          "name": "index",
          "type": "uint256"
        }
      ],
      "name": "get_property_owners_addresses",
      "outputs": [
        {
          "internalType": "address[]",
          "name": "",
          "type": "address[]"
        }
      ],
      "stateMutability": "view",
      "type": "function"
    },
    {
      "inputs": [],
      "name": "propertyIndex",
      "outputs": [
        {
          "internalType": "uint256",
          "name": "",
          "type": "uint256"
        }
      ],
      "stateMutability": "view",
      "type": "function"
    },
    {
      "inputs": [
        {
          "internalType": "string",
          "name": "_property_location",
          "type": "string"
        },
        {
          "internalType": "address",
          "name": "_new_owner_address",
          "type": "address"
        },
        {
          "internalType": "string",
          "name": "_newipfslink",
          "type": "string"
        },
        {
          "internalType": "uint256",
          "name": "index",
          "type": "uint256"
        }
      ],
      "name": "sell_property",
      "outputs": [],
      "stateMutability": "nonpayable",
      "type": "function"
    },
    {
      "inputs": [
        {
          "internalType": "address",
          "name": "userAddr",
          "type": "address"
        },
        {
          "internalType": "uint256",
          "name": "index",
          "type": "uint256"
        }
      ],
      "name": "set_current_property_index",
      "outputs": [],
      "stateMutability": "nonpayable",
      "type": "function"
    }
  ],
  "bytecode": "0x608060405234801561001057600080fd5b5060008081905550612e21806100276000396000f3fe608060405234801561001057600080fd5b506004361061009e5760003560e01c8063c2a8417911610066578063c2a841791461017f578063d15d7daa146101af578063daa88a41146101cb578063dd66f08c146101e7578063f56720b5146102175761009e565b80633fad184b146100a357806377277409146100d35780637be6a23b146100ef5780638ae8f8751461011f5780639bca9f1a1461014f575b600080fd5b6100bd60048036038101906100b8919061222a565b610235565b6040516100ca9190612810565b60405180910390f35b6100ed60048036038101906100e8919061226a565b610744565b005b610109600480360381019061010491906121fd565b610db9565b60405161011691906128b4565b60405180910390f35b610139600480360381019061013491906121fd565b610eba565b6040516101469190612832565b60405180910390f35b6101696004803603810190610164919061222a565b6110e9565b60405161017691906127aa565b60405180910390f35b610199600480360381019061019491906121fd565b611346565b6040516101a691906127cc565b60405180910390f35b6101c960048036038101906101c49190612309565b6115fd565b005b6101e560048036038101906101e0919061222a565b6118d6565b005b61020160048036038101906101fc91906121fd565b611a8c565b60405161020e91906127ee565b60405180910390f35b61021f611fcf565b60405161022c91906128b4565b60405180910390f35b60608273ffffffffffffffffffffffffffffffffffffffff163373ffffffffffffffffffffffffffffffffffffffff1614806102b05750739c459e648558e3e94432ea1ce9ce9859f39290b773ffffffffffffffffffffffffffffffffffffffff163373ffffffffffffffffffffffffffffffffffffffff16145b6102ef576040517f08c379a00000000000000000000000000000000000000000000000000000000081526004016102e690612854565b60405180910390fd5b8273ffffffffffffffffffffffffffffffffffffffff166005600084815260200190815260200160002060009054906101000a900473ffffffffffffffffffffffffffffffffffffffff1673ffffffffffffffffffffffffffffffffffffffff1614610390576040517f08c379a000000000000000000000000000000000000000000000000000000000815260040161038790612894565b60405180910390fd5b6000600367ffffffffffffffff8111156103ad576103ac612cc8565b5b6040519080825280602002602001820160405280156103e057816020015b60608152602001906001900390816103cb5790505b509050600160008573ffffffffffffffffffffffffffffffffffffffff1673ffffffffffffffffffffffffffffffffffffffff16815260200190815260200160002060046000858152602001908152602001600020548154811061044757610446612c99565b5b9060005260206000209060050201600101805461046390612b8f565b80601f016020809104026020016040519081016040528092919081815260200182805461048f90612b8f565b80156104dc5780601f106104b1576101008083540402835291602001916104dc565b820191906000526020600020905b8154815290600101906020018083116104bf57829003601f168201915b5050505050816000815181106104f5576104f4612c99565b5b6020026020010181905250600160008573ffffffffffffffffffffffffffffffffffffffff1673ffffffffffffffffffffffffffffffffffffffff16815260200190815260200160002060046000858152602001908152602001600020548154811061056457610563612c99565b5b9060005260206000209060050201600201805461058090612b8f565b80601f01602080910402602001604051908101604052809291908181526020018280546105ac90612b8f565b80156105f95780601f106105ce576101008083540402835291602001916105f9565b820191906000526020600020905b8154815290600101906020018083116105dc57829003601f168201915b50505050508160018151811061061257610611612c99565b5b6020026020010181905250600160008573ffffffffffffffffffffffffffffffffffffffff1673ffffffffffffffffffffffffffffffffffffffff16815260200190815260200160002060046000858152602001908152602001600020548154811061068157610680612c99565b5b9060005260206000209060050201600301805461069d90612b8f565b80601f01602080910402602001604051908101604052809291908181526020018280546106c990612b8f565b80156107165780601f106106eb57610100808354040283529160200191610716565b820191906000526020600020905b8154815290600101906020018083116106f957829003601f168201915b50505050508160028151811061072f5761072e612c99565b5b60200260200101819052508091505092915050565b6000600160003373ffffffffffffffffffffffffffffffffffffffff1673ffffffffffffffffffffffffffffffffffffffff1681526020019081526020016000206004600084815260200190815260200160002054815481106107aa576107a9612c99565b5b906000526020600020906005020160040180549050905060006001826107d09190612a91565b67ffffffffffffffff8111156107e9576107e8612cc8565b5b6040519080825280602002602001820160405280156108175781602001602082028036833780820191505090505b50905060005b8281101561093757600160003373ffffffffffffffffffffffffffffffffffffffff1673ffffffffffffffffffffffffffffffffffffffff16815260200190815260200160002060046000868152602001908152602001600020548154811061088957610888612c99565b5b906000526020600020906005020160040181815481106108ac576108ab612c99565b5b9060005260206000200160009054906101000a900473ffffffffffffffffffffffffffffffffffffffff168282815181106108ea576108e9612c99565b5b602002602001019073ffffffffffffffffffffffffffffffffffffffff16908173ffffffffffffffffffffffffffffffffffffffff1681525050808061092f90612bf2565b91505061081d565b508481838151811061094c5761094b612c99565b5b602002602001019073ffffffffffffffffffffffffffffffffffffffff16908173ffffffffffffffffffffffffffffffffffffffff16815250506000600160008773ffffffffffffffffffffffffffffffffffffffff1673ffffffffffffffffffffffffffffffffffffffff1681526020019081526020016000208054905090506000600160003373ffffffffffffffffffffffffffffffffffffffff1673ffffffffffffffffffffffffffffffffffffffff168152602001908152602001600020600460008781526020019081526020016000205481548110610a3357610a32612c99565b5b90600052602060002090600502016003018054610a4f90612b8f565b80601f0160208091040260200160405190810160405280929190818152602001828054610a7b90612b8f565b8015610ac85780601f10610a9d57610100808354040283529160200191610ac8565b820191906000526020600020905b815481529060010190602001808311610aab57829003601f168201915b50505050509050600160008873ffffffffffffffffffffffffffffffffffffffff1673ffffffffffffffffffffffffffffffffffffffff1681526020019081526020016000206040518060a001604052808781526020018a8152602001838152602001888152602001858152509080600181540180825580915050600190039060005260206000209060050201600090919091909150600082015181600001556020820151816001019080519060200190610b84929190611fd5565b506040820151816002019080519060200190610ba1929190611fd5565b506060820151816003019080519060200190610bbe929190611fd5565b506080820151816004019080519060200190610bdb92919061205b565b505050600260008873ffffffffffffffffffffffffffffffffffffffff1673ffffffffffffffffffffffffffffffffffffffff1681526020019081526020016000206000815480929190610c2e90612bf2565b9190505550600160003373ffffffffffffffffffffffffffffffffffffffff1673ffffffffffffffffffffffffffffffffffffffff168152602001908152602001600020600460008781526020019081526020016000205481548110610c9757610c96612c99565b5b9060005260206000209060050201600080820160009055600182016000610cbe91906120e5565b600282016000610cce91906120e5565b600382016000610cde91906120e5565b600482016000610cee9190612125565b5050866005600087815260200190815260200160002060006101000a81548173ffffffffffffffffffffffffffffffffffffffff021916908373ffffffffffffffffffffffffffffffffffffffff160217905550816004600087815260200190815260200160002081905550600260003373ffffffffffffffffffffffffffffffffffffffff1673ffffffffffffffffffffffffffffffffffffffff1681526020019081526020016000206000815480929190610daa90612b65565b91905055505050505050505050565b60008173ffffffffffffffffffffffffffffffffffffffff163373ffffffffffffffffffffffffffffffffffffffff161480610e345750739c459e648558e3e94432ea1ce9ce9859f39290b773ffffffffffffffffffffffffffffffffffffffff163373ffffffffffffffffffffffffffffffffffffffff16145b610e73576040517f08c379a0000000000000000000000000000000000000000000000000000000008152600401610e6a90612854565b60405180910390fd5b600360008373ffffffffffffffffffffffffffffffffffffffff1673ffffffffffffffffffffffffffffffffffffffff168152602001908152602001600020549050919050565b60608173ffffffffffffffffffffffffffffffffffffffff163373ffffffffffffffffffffffffffffffffffffffff161480610f355750739c459e648558e3e94432ea1ce9ce9859f39290b773ffffffffffffffffffffffffffffffffffffffff163373ffffffffffffffffffffffffffffffffffffffff16145b610f74576040517f08c379a0000000000000000000000000000000000000000000000000000000008152600401610f6b90612854565b60405180910390fd5b6000600260008473ffffffffffffffffffffffffffffffffffffffff1673ffffffffffffffffffffffffffffffffffffffff1681526020019081526020016000205467ffffffffffffffff811115610fcf57610fce612cc8565b5b604051908082528060200260200182016040528015610ffd5781602001602082028036833780820191505090505b50905060005b600260008573ffffffffffffffffffffffffffffffffffffffff1673ffffffffffffffffffffffffffffffffffffffff168152602001908152602001600020548110156110df57600160008573ffffffffffffffffffffffffffffffffffffffff1673ffffffffffffffffffffffffffffffffffffffff168152602001908152602001600020818154811061109b5761109a612c99565b5b9060005260206000209060050201600001548282815181106110c0576110bf612c99565b5b60200260200101818152505080806110d790612bf2565b915050611003565b5080915050919050565b60608273ffffffffffffffffffffffffffffffffffffffff163373ffffffffffffffffffffffffffffffffffffffff1614806111645750739c459e648558e3e94432ea1ce9ce9859f39290b773ffffffffffffffffffffffffffffffffffffffff163373ffffffffffffffffffffffffffffffffffffffff16145b6111a3576040517f08c379a000000000000000000000000000000000000000000000000000000000815260040161119a90612854565b60405180910390fd5b8273ffffffffffffffffffffffffffffffffffffffff166005600084815260200190815260200160002060009054906101000a900473ffffffffffffffffffffffffffffffffffffffff1673ffffffffffffffffffffffffffffffffffffffff1614611244576040517f08c379a000000000000000000000000000000000000000000000000000000000815260040161123b90612894565b60405180910390fd5b600160008473ffffffffffffffffffffffffffffffffffffffff1673ffffffffffffffffffffffffffffffffffffffff1681526020019081526020016000206004600084815260200190815260200160002054815481106112a8576112a7612c99565b5b906000526020600020906005020160040180548060200260200160405190810160405280929190818152602001828054801561133957602002820191906000526020600020905b8160009054906101000a900473ffffffffffffffffffffffffffffffffffffffff1673ffffffffffffffffffffffffffffffffffffffff16815260200190600101908083116112ef575b5050505050905092915050565b60608173ffffffffffffffffffffffffffffffffffffffff163373ffffffffffffffffffffffffffffffffffffffff1614806113c15750739c459e648558e3e94432ea1ce9ce9859f39290b773ffffffffffffffffffffffffffffffffffffffff163373ffffffffffffffffffffffffffffffffffffffff16145b611400576040517f08c379a00000000000000000000000000000000000000000000000000000000081526004016113f790612854565b60405180910390fd5b6000600260008473ffffffffffffffffffffffffffffffffffffffff1673ffffffffffffffffffffffffffffffffffffffff1681526020019081526020016000205467ffffffffffffffff81111561145b5761145a612cc8565b5b60405190808252806020026020018201604052801561148e57816020015b60608152602001906001900390816114795790505b50905060005b600260008573ffffffffffffffffffffffffffffffffffffffff1673ffffffffffffffffffffffffffffffffffffffff168152602001908152602001600020548110156115f357600160008573ffffffffffffffffffffffffffffffffffffffff1673ffffffffffffffffffffffffffffffffffffffff168152602001908152602001600020818154811061152c5761152b612c99565b5b90600052602060002090600502016004018054806020026020016040519081016040528092919081815260200182805480156115bd57602002820191906000526020600020905b8160009054906101000a900473ffffffffffffffffffffffffffffffffffffffff1673ffffffffffffffffffffffffffffffffffffffff1681526020019060010190808311611573575b50505050508282815181106115d5576115d4612c99565b5b602002602001018190525080806115eb90612bf2565b915050611494565b5080915050919050565b6000600167ffffffffffffffff81111561161a57611619612cc8565b5b6040519080825280602002602001820160405280156116485781602001602082028036833780820191505090505b50905033816000815181106116605761165f612c99565b5b602002602001019073ffffffffffffffffffffffffffffffffffffffff16908173ffffffffffffffffffffffffffffffffffffffff1681525050600160003373ffffffffffffffffffffffffffffffffffffffff1673ffffffffffffffffffffffffffffffffffffffff1681526020019081526020016000206040518060a001604052806000548152602001858152602001604051806020016040528060008152508152602001848152602001838152509080600181540180825580915050600190039060005260206000209060050201600090919091909150600082015181600001556020820151816001019080519060200190611760929190611fd5565b50604082015181600201908051906020019061177d929190611fd5565b50606082015181600301908051906020019061179a929190611fd5565b5060808201518160040190805190602001906117b792919061205b565b505050600260003373ffffffffffffffffffffffffffffffffffffffff1673ffffffffffffffffffffffffffffffffffffffff1681526020019081526020016000205460046000805481526020019081526020016000208190555033600560008054815260200190815260200160002060006101000a81548173ffffffffffffffffffffffffffffffffffffffff021916908373ffffffffffffffffffffffffffffffffffffffff160217905550600260003373ffffffffffffffffffffffffffffffffffffffff1673ffffffffffffffffffffffffffffffffffffffff16815260200190815260200160002060008154809291906118b590612bf2565b91905055506000808154809291906118cc90612bf2565b9190505550505050565b8173ffffffffffffffffffffffffffffffffffffffff163373ffffffffffffffffffffffffffffffffffffffff161480156119515750739c459e648558e3e94432ea1ce9ce9859f39290b773ffffffffffffffffffffffffffffffffffffffff163373ffffffffffffffffffffffffffffffffffffffff1614155b611990576040517f08c379a000000000000000000000000000000000000000000000000000000000815260040161198790612874565b60405180910390fd5b8173ffffffffffffffffffffffffffffffffffffffff166005600083815260200190815260200160002060009054906101000a900473ffffffffffffffffffffffffffffffffffffffff1673ffffffffffffffffffffffffffffffffffffffff1614611a31576040517f08c379a0000000000000000000000000000000000000000000000000000000008152600401611a2890612894565b60405180910390fd5b6004600082815260200190815260200160002054600360008473ffffffffffffffffffffffffffffffffffffffff1673ffffffffffffffffffffffffffffffffffffffff168152602001908152602001600020819055505050565b60608173ffffffffffffffffffffffffffffffffffffffff163373ffffffffffffffffffffffffffffffffffffffff161480611b075750739c459e648558e3e94432ea1ce9ce9859f39290b773ffffffffffffffffffffffffffffffffffffffff163373ffffffffffffffffffffffffffffffffffffffff16145b611b46576040517f08c379a0000000000000000000000000000000000000000000000000000000008152600401611b3d90612854565b60405180910390fd5b6000600260008473ffffffffffffffffffffffffffffffffffffffff1673ffffffffffffffffffffffffffffffffffffffff1681526020019081526020016000205467ffffffffffffffff811115611ba157611ba0612cc8565b5b604051908082528060200260200182016040528015611bd457816020015b6060815260200190600190039081611bbf5790505b50905060005b600260008573ffffffffffffffffffffffffffffffffffffffff1673ffffffffffffffffffffffffffffffffffffffff16815260200190815260200160002054811015611fc5576000600367ffffffffffffffff811115611c3e57611c3d612cc8565b5b604051908082528060200260200182016040528015611c7157816020015b6060815260200190600190039081611c5c5790505b509050600160008673ffffffffffffffffffffffffffffffffffffffff1673ffffffffffffffffffffffffffffffffffffffff1681526020019081526020016000208281548110611cc557611cc4612c99565b5b90600052602060002090600502016001018054611ce190612b8f565b80601f0160208091040260200160405190810160405280929190818152602001828054611d0d90612b8f565b8015611d5a5780601f10611d2f57610100808354040283529160200191611d5a565b820191906000526020600020905b815481529060010190602001808311611d3d57829003601f168201915b505050505081600081518110611d7357611d72612c99565b5b6020026020010181905250600160008673ffffffffffffffffffffffffffffffffffffffff1673ffffffffffffffffffffffffffffffffffffffff1681526020019081526020016000208281548110611dcf57611dce612c99565b5b90600052602060002090600502016002018054611deb90612b8f565b80601f0160208091040260200160405190810160405280929190818152602001828054611e1790612b8f565b8015611e645780601f10611e3957610100808354040283529160200191611e64565b820191906000526020600020905b815481529060010190602001808311611e4757829003601f168201915b505050505081600181518110611e7d57611e7c612c99565b5b6020026020010181905250600160008673ffffffffffffffffffffffffffffffffffffffff1673ffffffffffffffffffffffffffffffffffffffff1681526020019081526020016000208281548110611ed957611ed8612c99565b5b90600052602060002090600502016003018054611ef590612b8f565b80601f0160208091040260200160405190810160405280929190818152602001828054611f2190612b8f565b8015611f6e5780601f10611f4357610100808354040283529160200191611f6e565b820191906000526020600020905b815481529060010190602001808311611f5157829003601f168201915b505050505081600281518110611f8757611f86612c99565b5b602002602001018190525080838381518110611fa657611fa5612c99565b5b6020026020010181905250508080611fbd90612bf2565b915050611bda565b5080915050919050565b60005481565b828054611fe190612b8f565b90600052602060002090601f016020900481019282612003576000855561204a565b82601f1061201c57805160ff191683800117855561204a565b8280016001018555821561204a579182015b8281111561204957825182559160200191906001019061202e565b5b5090506120579190612146565b5090565b8280548282559060005260206000209081019282156120d4579160200282015b828111156120d35782518260006101000a81548173ffffffffffffffffffffffffffffffffffffffff021916908373ffffffffffffffffffffffffffffffffffffffff1602179055509160200191906001019061207b565b5b5090506120e19190612146565b5090565b5080546120f190612b8f565b6000825580601f106121035750612122565b601f0160209004906000526020600020908101906121219190612146565b5b50565b50805460008255906000526020600020908101906121439190612146565b50565b5b8082111561215f576000816000905550600101612147565b5090565b6000612176612171846128f4565b6128cf565b90508281526020810184848401111561219257612191612cfc565b5b61219d848285612b23565b509392505050565b6000813590506121b481612dbd565b92915050565b600082601f8301126121cf576121ce612cf7565b5b81356121df848260208601612163565b91505092915050565b6000813590506121f781612dd4565b92915050565b60006020828403121561221357612212612d06565b5b6000612221848285016121a5565b91505092915050565b6000806040838503121561224157612240612d06565b5b600061224f858286016121a5565b9250506020612260858286016121e8565b9150509250929050565b6000806000806080858703121561228457612283612d06565b5b600085013567ffffffffffffffff8111156122a2576122a1612d01565b5b6122ae878288016121ba565b94505060206122bf878288016121a5565b935050604085013567ffffffffffffffff8111156122e0576122df612d01565b5b6122ec878288016121ba565b92505060606122fd878288016121e8565b91505092959194509250565b600080604083850312156123205761231f612d06565b5b600083013567ffffffffffffffff81111561233e5761233d612d01565b5b61234a858286016121ba565b925050602083013567ffffffffffffffff81111561236b5761236a612d01565b5b612377858286016121ba565b9150509250929050565b600061238d83836123ed565b60208301905092915050565b60006123a583836123fc565b905092915050565b60006123b983836125a2565b905092915050565b60006123cd83836126ea565b905092915050565b60006123e1838361278c565b60208301905092915050565b6123f681612ae7565b82525050565b600061240782612975565b61241181856129f8565b935061241c83612925565b8060005b8381101561244d5781516124348882612381565b975061243f836129b7565b925050600181019050612420565b5085935050505092915050565b600061246582612975565b61246f8185612a09565b935061247a83612925565b8060005b838110156124ab5781516124928882612381565b975061249d836129b7565b92505060018101905061247e565b5085935050505092915050565b60006124c382612980565b6124cd8185612a1a565b9350836020820285016124df85612935565b8060005b8581101561251b57848403895281516124fc8582612399565b9450612507836129c4565b925060208a019950506001810190506124e3565b50829750879550505050505092915050565b60006125388261298b565b6125428185612a2b565b93508360208202850161255485612945565b8060005b85811015612590578484038952815161257185826123ad565b945061257c836129d1565b925060208a01995050600181019050612558565b50829750879550505050505092915050565b60006125ad82612996565b6125b78185612a3c565b9350836020820285016125c985612955565b8060005b8581101561260557848403895281516125e685826123c1565b94506125f1836129de565b925060208a019950506001810190506125cd565b50829750879550505050505092915050565b600061262282612996565b61262c8185612a4d565b93508360208202850161263e85612955565b8060005b8581101561267a578484038952815161265b85826123c1565b9450612666836129de565b925060208a01995050600181019050612642565b50829750879550505050505092915050565b6000612697826129a1565b6126a18185612a5e565b93506126ac83612965565b8060005b838110156126dd5781516126c488826123d5565b97506126cf836129eb565b9250506001810190506126b0565b5085935050505092915050565b60006126f5826129ac565b6126ff8185612a6f565b935061270f818560208601612b32565b61271881612d0b565b840191505092915050565b6000612730603083612a80565b915061273b82612d1c565b604082019050919050565b6000612753601d83612a80565b915061275e82612d6b565b602082019050919050565b6000612776600d83612a80565b915061278182612d94565b602082019050919050565b61279581612b19565b82525050565b6127a481612b19565b82525050565b600060208201905081810360008301526127c4818461245a565b905092915050565b600060208201905081810360008301526127e681846124b8565b905092915050565b60006020820190508181036000830152612808818461252d565b905092915050565b6000602082019050818103600083015261282a8184612617565b905092915050565b6000602082019050818103600083015261284c818461268c565b905092915050565b6000602082019050818103600083015261286d81612723565b9050919050565b6000602082019050818103600083015261288d81612746565b9050919050565b600060208201905081810360008301526128ad81612769565b9050919050565b60006020820190506128c9600083018461279b565b92915050565b60006128d96128ea565b90506128e58282612bc1565b919050565b6000604051905090565b600067ffffffffffffffff82111561290f5761290e612cc8565b5b61291882612d0b565b9050602081019050919050565b6000819050602082019050919050565b6000819050602082019050919050565b6000819050602082019050919050565b6000819050602082019050919050565b6000819050602082019050919050565b600081519050919050565b600081519050919050565b600081519050919050565b600081519050919050565b600081519050919050565b600081519050919050565b6000602082019050919050565b6000602082019050919050565b6000602082019050919050565b6000602082019050919050565b6000602082019050919050565b600082825260208201905092915050565b600082825260208201905092915050565b600082825260208201905092915050565b600082825260208201905092915050565b600082825260208201905092915050565b600082825260208201905092915050565b600082825260208201905092915050565b600082825260208201905092915050565b600082825260208201905092915050565b6000612a9c82612b19565b9150612aa783612b19565b9250827fffffffffffffffffffffffffffffffffffffffffffffffffffffffffffffffff03821115612adc57612adb612c3b565b5b828201905092915050565b6000612af282612af9565b9050919050565b600073ffffffffffffffffffffffffffffffffffffffff82169050919050565b6000819050919050565b82818337600083830152505050565b60005b83811015612b50578082015181840152602081019050612b35565b83811115612b5f576000848401525b50505050565b6000612b7082612b19565b91506000821415612b8457612b83612c3b565b5b600182039050919050565b60006002820490506001821680612ba757607f821691505b60208210811415612bbb57612bba612c6a565b5b50919050565b612bca82612d0b565b810181811067ffffffffffffffff82111715612be957612be8612cc8565b5b80604052505050565b6000612bfd82612b19565b91507fffffffffffffffffffffffffffffffffffffffffffffffffffffffffffffffff821415612c3057612c2f612c3b565b5b600182019050919050565b7f4e487b7100000000000000000000000000000000000000000000000000000000600052601160045260246000fd5b7f4e487b7100000000000000000000000000000000000000000000000000000000600052602260045260246000fd5b7f4e487b7100000000000000000000000000000000000000000000000000000000600052603260045260246000fd5b7f4e487b7100000000000000000000000000000000000000000000000000000000600052604160045260246000fd5b600080fd5b600080fd5b600080fd5b600080fd5b6000601f19601f8301169050919050565b7f4f6e6c792041646d696e206f72204163636f756e74204f776e6572206973204160008201527f6c6c6f77656420746f2061636365737300000000000000000000000000000000602082015250565b7f4f6e652050726f7065727479204f776e65722063616e20416363657373000000600082015250565b7f496e76616c696420496e64657800000000000000000000000000000000000000600082015250565b612dc681612ae7565b8114612dd157600080fd5b50565b612ddd81612b19565b8114612de857600080fd5b5056fea264697066735822122084cecb40ab798bd628994e8a9c557210c2420fab5e3d01ba9de43d0662bee64564736f6c63430008070033",
  "linkReferences": {},
  "deployedLinkReferences": {}
}