{
  "_format": "hh-sol-artifact-1",
  "contractName": "Authentication",
  "sourceName": "contracts/Authentication.sol",
  "abi": [
    {
      "inputs": [],
      "stateMutability": "nonpayable",
      "type": "constructor"
    },
    {
      "inputs": [
        {
          "internalType": "string",
          "name": "pan",
          "type": "string"
        }
      ],
      "name": "accessDocs",
      "outputs": [
        {
          "internalType": "string[]",
          "name": "",
          "type": "string[]"
        }
      ],
      "stateMutability": "view",
      "type": "function"
    },
    {
      "inputs": [
        {
          "internalType": "string",
          "name": "_property_location",
          "type": "string"
        },
        {
          "internalType": "string",
          "name": "_newipfslink",
          "type": "string"
        }
      ],
      "name": "allot_property",
      "outputs": [],
      "stateMutability": "nonpayable",
      "type": "function"
    },
    {
      "inputs": [
        {
          "internalType": "string",
          "name": "pan",
          "type": "string"
        }
      ],
      "name": "checkPANDetails",
      "outputs": [
        {
          "internalType": "string",
          "name": "",
          "type": "string"
        }
      ],
      "stateMutability": "view",
      "type": "function"
    },
    {
      "inputs": [
        {
          "internalType": "address",
          "name": "userAddr",
          "type": "address"
        }
      ],
      "name": "getEmail",
      "outputs": [
        {
          "internalType": "string",
          "name": "",
          "type": "string"
        }
      ],
      "stateMutability": "view",
      "type": "function"
    },
    {
      "inputs": [],
      "name": "getGovAddress",
      "outputs": [
        {
          "internalType": "address",
          "name": "",
          "type": "address"
        }
      ],
      "stateMutability": "view",
      "type": "function"
    },
    {
      "inputs": [
        {
          "internalType": "address",
          "name": "userAddr",
          "type": "address"
        }
      ],
      "name": "getIPFS",
      "outputs": [
        {
          "internalType": "string",
          "name": "",
          "type": "string"
        }
      ],
      "stateMutability": "view",
      "type": "function"
    },
    {
      "inputs": [
        {
          "internalType": "address",
          "name": "userAddr",
          "type": "address"
        }
      ],
      "name": "getOTP",
      "outputs": [
        {
          "internalType": "uint256",
          "name": "",
          "type": "uint256"
        }
      ],
      "stateMutability": "view",
      "type": "function"
    },
    {
      "inputs": [],
      "name": "getSignatureHash",
      "outputs": [
        {
          "internalType": "string",
          "name": "",
          "type": "string"
        }
      ],
      "stateMutability": "view",
      "type": "function"
    },
    {
      "inputs": [],
      "name": "getSignatureHashGov",
      "outputs": [
        {
          "internalType": "string",
          "name": "",
          "type": "string"
        }
      ],
      "stateMutability": "view",
      "type": "function"
    },
    {
      "inputs": [],
      "name": "getUserAddress",
      "outputs": [
        {
          "internalType": "address",
          "name": "",
          "type": "address"
        }
      ],
      "stateMutability": "view",
      "type": "function"
    },
    {
      "inputs": [
        {
          "internalType": "string",
          "name": "pan",
          "type": "string"
        }
      ],
      "name": "getUserAddressfromPAN",
      "outputs": [
        {
          "internalType": "address",
          "name": "",
          "type": "address"
        }
      ],
      "stateMutability": "view",
      "type": "function"
    },
    {
      "inputs": [
        {
          "internalType": "address",
          "name": "userAddr",
          "type": "address"
        }
      ],
      "name": "get_all_property_details",
      "outputs": [
        {
          "internalType": "string[][]",
          "name": "",
          "type": "string[][]"
        }
      ],
      "stateMutability": "view",
      "type": "function"
    },
    {
      "inputs": [
        {
          "internalType": "address",
          "name": "userAddr",
          "type": "address"
        }
      ],
      "name": "get_all_property_index",
      "outputs": [
        {
          "internalType": "uint256[]",
          "name": "",
          "type": "uint256[]"
        }
      ],
      "stateMutability": "view",
      "type": "function"
    },
    {
      "inputs": [
        {
          "internalType": "address",
          "name": "userAddr",
          "type": "address"
        }
      ],
      "name": "get_all_property_owners_addresses",
      "outputs": [
        {
          "internalType": "address[][]",
          "name": "",
          "type": "address[][]"
        }
      ],
      "stateMutability": "view",
      "type": "function"
    },
    {
      "inputs": [
        {
          "internalType": "address",
          "name": "userAddr",
          "type": "address"
        }
      ],
      "name": "get_current_property_index",
      "outputs": [
        {
          "internalType": "uint256",
          "name": "",
          "type": "uint256"
        }
      ],
      "stateMutability": "view",
      "type": "function"
    },
    {
      "inputs": [
        {
          "internalType": "address",
          "name": "userAddr",
          "type": "address"
        },
        {
          "internalType": "uint256",
          "name": "index",
          "type": "uint256"
        }
      ],
      "name": "get_property_details",
      "outputs": [
        {
          "internalType": "string[]",
          "name": "",
          "type": "string[]"
        }
      ],
      "stateMutability": "view",
      "type": "function"
    },
    {
      "inputs": [
        {
          "internalType": "address",
          "name": "userAddr",
          "type": "address"
        },
        {
          "internalType": "uint256",
          "name": "index",
          "type": "uint256"
        }
      ],
      "name": "get_property_owners_addresses",
      "outputs": [
        {
          "internalType": "address[]",
          "name": "",
          "type": "address[]"
        }
      ],
      "stateMutability": "view",
      "type": "function"
    },
    {
      "inputs": [],
      "name": "nbOfUsers",
      "outputs": [
        {
          "internalType": "uint256",
          "name": "",
          "type": "uint256"
        }
      ],
      "stateMutability": "view",
      "type": "function"
    },
    {
      "inputs": [],
      "name": "propertyIndex",
      "outputs": [
        {
          "internalType": "uint256",
          "name": "",
          "type": "uint256"
        }
      ],
      "stateMutability": "view",
      "type": "function"
    },
    {
      "inputs": [
        {
          "internalType": "string",
          "name": "_signature",
          "type": "string"
        },
        {
          "internalType": "string",
          "name": "pan",
          "type": "string"
        },
        {
          "internalType": "string",
          "name": "email",
          "type": "string"
        }
      ],
      "name": "register",
      "outputs": [],
      "stateMutability": "nonpayable",
      "type": "function"
    },
    {
      "inputs": [
        {
          "internalType": "string",
          "name": "propertyDesc",
          "type": "string"
        },
        {
          "internalType": "string",
          "name": "oldLink",
          "type": "string"
        },
        {
          "internalType": "string",
          "name": "newLink",
          "type": "string"
        }
      ],
      "name": "registerDocs",
      "outputs": [],
      "stateMutability": "nonpayable",
      "type": "function"
    },
    {
      "inputs": [
        {
          "internalType": "string",
          "name": "_signature",
          "type": "string"
        }
      ],
      "name": "registerGov",
      "outputs": [],
      "stateMutability": "nonpayable",
      "type": "function"
    },
    {
      "inputs": [
        {
          "internalType": "string",
          "name": "_property_location",
          "type": "string"
        },
        {
          "internalType": "string",
          "name": "panNumber",
          "type": "string"
        },
        {
          "internalType": "string",
          "name": "_newipfslink",
          "type": "string"
        },
        {
          "internalType": "uint256",
          "name": "index",
          "type": "uint256"
        }
      ],
      "name": "sell_property",
      "outputs": [],
      "stateMutability": "nonpayable",
      "type": "function"
    },
    {
      "inputs": [
        {
          "internalType": "address",
          "name": "userAddr",
          "type": "address"
        },
        {
          "internalType": "string",
          "name": "x",
          "type": "string"
        }
      ],
      "name": "setIPFS",
      "outputs": [],
      "stateMutability": "nonpayable",
      "type": "function"
    },
    {
      "inputs": [
        {
          "internalType": "uint256",
          "name": "otp",
          "type": "uint256"
        }
      ],
      "name": "setOTP",
      "outputs": [],
      "stateMutability": "nonpayable",
      "type": "function"
    },
    {
      "inputs": [
        {
          "internalType": "address",
          "name": "userAddr",
          "type": "address"
        },
        {
          "internalType": "uint256",
          "name": "index",
          "type": "uint256"
        }
      ],
      "name": "set_current_property_index",
      "outputs": [],
      "stateMutability": "nonpayable",
      "type": "function"
    }
  ],
  "bytecode": "0x608060405234801561001057600080fd5b50600080819055506000600181905550614e548061002f6000396000f3fe608060405234801561001057600080fd5b506004361061018e5760003560e01c8063b944dc34116100de578063d6aa169211610097578063ebc3eee811610071578063ebc3eee8146104f1578063eef8fff11461050f578063ef4a63b81461052b578063f56720b5146105495761018e565b8063d6aa169214610489578063daa88a41146104a5578063dd66f08c146104c15761018e565b8063b944dc34146103c9578063c127ae41146103e5578063c2a8417914610403578063c2c3e56614610433578063c2ea2a8a14610451578063d15d7daa1461046d5761018e565b80634fa7353c1161014b5780637be6a23b116101255780637be6a23b1461031d5780638ae8f8751461034d5780639400f3b41461037d5780639bca9f1a146103995761018e565b80634fa7353c1461028d578063636d757d146102bd57806374efaa61146102ed5761018e565b80630896ee4e1461019357806312679323146101c357806331b2a8c2146101e157806333f235c1146102115780633fad184b146102415780634cd08d0314610271575b600080fd5b6101ad60048036038101906101a89190613c5d565b610567565b6040516101ba91906145e9565b60405180910390f35b6101cb6106f0565b6040516101d8919061474b565b60405180910390f35b6101fb60048036038101906101f69190613d26565b6106f6565b60405161020891906145e9565b60405180910390f35b61022b60048036038101906102269190613d26565b6107e6565b60405161023891906145a5565b60405180910390f35b61025b60048036038101906102569190613ce6565b610bc8565b60405161026891906145a5565b60405180910390f35b61028b60048036038101906102869190613de7565b6110d7565b005b6102a760048036038101906102a29190613c5d565b6113a7565b6040516102b491906145e9565b60405180910390f35b6102d760048036038101906102d29190613d26565b611595565b6040516102e49190614524565b60405180910390f35b61030760048036038101906103029190613c5d565b61165f565b604051610314919061474b565b60405180910390f35b61033760048036038101906103329190613c5d565b611762565b604051610344919061474b565b60405180910390f35b61036760048036038101906103629190613c5d565b611863565b60405161037491906145c7565b60405180910390f35b61039760048036038101906103929190613d26565b611a92565b005b6103b360048036038101906103ae9190613ce6565b611cc0565b6040516103c0919061453f565b60405180910390f35b6103e360048036038101906103de9190613de7565b611f1d565b005b6103ed6120f7565b6040516103fa91906145e9565b60405180910390f35b61041d60048036038101906104189190613c5d565b612299565b60405161042a9190614561565b60405180910390f35b61043b612550565b60405161044891906145e9565b60405180910390f35b61046b60048036038101906104669190613e8e565b6126f2565b005b61048760048036038101906104829190613d6f565b612dab565b005b6104a3600480360381019061049e9190613f49565b613087565b005b6104bf60048036038101906104ba9190613ce6565b613150565b005b6104db60048036038101906104d69190613c5d565b613306565b6040516104e89190614583565b60405180910390f35b6104f9613849565b6040516105069190614524565b60405180910390f35b61052960048036038101906105249190613c8a565b6138b3565b005b6105336139c5565b6040516105409190614524565b60405180910390f35b610551613a2f565b60405161055e919061474b565b60405180910390f35b60608173ffffffffffffffffffffffffffffffffffffffff163373ffffffffffffffffffffffffffffffffffffffff1614806105e25750739c459e648558e3e94432ea1ce9ce9859f39290b773ffffffffffffffffffffffffffffffffffffffff163373ffffffffffffffffffffffffffffffffffffffff16145b610621576040517f08c379a00000000000000000000000000000000000000000000000000000000081526004016106189061466b565b60405180910390fd5b600b60008373ffffffffffffffffffffffffffffffffffffffff1673ffffffffffffffffffffffffffffffffffffffff168152602001908152602001600020805461066b90614a31565b80601f016020809104026020016040519081016040528092919081815260200182805461069790614a31565b80156106e45780601f106106b9576101008083540402835291602001916106e4565b820191906000526020600020905b8154815290600101906020018083116106c757829003601f168201915b50505050509050919050565b60005481565b6060600073ffffffffffffffffffffffffffffffffffffffff16600483604051610720919061450d565b908152602001604051809103902060009054906101000a900473ffffffffffffffffffffffffffffffffffffffff1673ffffffffffffffffffffffffffffffffffffffff1614156107a8576040518060400160405280600a81526020017f4e6f74204578697374730000000000000000000000000000000000000000000081525090506107e1565b6040518060400160405280600681526020017f457869737473000000000000000000000000000000000000000000000000000081525090505b919050565b6060739c459e648558e3e94432ea1ce9ce9859f39290b773ffffffffffffffffffffffffffffffffffffffff163373ffffffffffffffffffffffffffffffffffffffff161461086a576040517f08c379a00000000000000000000000000000000000000000000000000000000081526004016108619061470b565b60405180910390fd5b6000600367ffffffffffffffff81111561088757610886614b6a565b5b6040519080825280602002602001820160405280156108ba57816020015b60608152602001906001900390816108a55790505b50905060006004846040516108cf919061450d565b908152602001604051809103902060009054906101000a900473ffffffffffffffffffffffffffffffffffffffff169050600560008273ffffffffffffffffffffffffffffffffffffffff1673ffffffffffffffffffffffffffffffffffffffff168152602001908152602001600020600001805461094d90614a31565b80601f016020809104026020016040519081016040528092919081815260200182805461097990614a31565b80156109c65780601f1061099b576101008083540402835291602001916109c6565b820191906000526020600020905b8154815290600101906020018083116109a957829003601f168201915b5050505050826000815181106109df576109de614b3b565b5b6020026020010181905250600560008273ffffffffffffffffffffffffffffffffffffffff1673ffffffffffffffffffffffffffffffffffffffff1681526020019081526020016000206001018054610a3790614a31565b80601f0160208091040260200160405190810160405280929190818152602001828054610a6390614a31565b8015610ab05780601f10610a8557610100808354040283529160200191610ab0565b820191906000526020600020905b815481529060010190602001808311610a9357829003601f168201915b505050505082600181518110610ac957610ac8614b3b565b5b6020026020010181905250600560008273ffffffffffffffffffffffffffffffffffffffff1673ffffffffffffffffffffffffffffffffffffffff1681526020019081526020016000206002018054610b2190614a31565b80601f0160208091040260200160405190810160405280929190818152602001828054610b4d90614a31565b8015610b9a5780601f10610b6f57610100808354040283529160200191610b9a565b820191906000526020600020905b815481529060010190602001808311610b7d57829003601f168201915b505050505082600281518110610bb357610bb2614b3b565b5b60200260200101819052508192505050919050565b60608273ffffffffffffffffffffffffffffffffffffffff163373ffffffffffffffffffffffffffffffffffffffff161480610c435750739c459e648558e3e94432ea1ce9ce9859f39290b773ffffffffffffffffffffffffffffffffffffffff163373ffffffffffffffffffffffffffffffffffffffff16145b610c82576040517f08c379a0000000000000000000000000000000000000000000000000000000008152600401610c799061460b565b60405180910390fd5b8273ffffffffffffffffffffffffffffffffffffffff16600a600084815260200190815260200160002060009054906101000a900473ffffffffffffffffffffffffffffffffffffffff1673ffffffffffffffffffffffffffffffffffffffff1614610d23576040517f08c379a0000000000000000000000000000000000000000000000000000000008152600401610d1a9061472b565b60405180910390fd5b6000600367ffffffffffffffff811115610d4057610d3f614b6a565b5b604051908082528060200260200182016040528015610d7357816020015b6060815260200190600190039081610d5e5790505b509050600660008573ffffffffffffffffffffffffffffffffffffffff1673ffffffffffffffffffffffffffffffffffffffff168152602001908152602001600020600960008581526020019081526020016000205481548110610dda57610dd9614b3b565b5b90600052602060002090600502016001018054610df690614a31565b80601f0160208091040260200160405190810160405280929190818152602001828054610e2290614a31565b8015610e6f5780601f10610e4457610100808354040283529160200191610e6f565b820191906000526020600020905b815481529060010190602001808311610e5257829003601f168201915b505050505081600081518110610e8857610e87614b3b565b5b6020026020010181905250600660008573ffffffffffffffffffffffffffffffffffffffff1673ffffffffffffffffffffffffffffffffffffffff168152602001908152602001600020600960008581526020019081526020016000205481548110610ef757610ef6614b3b565b5b90600052602060002090600502016002018054610f1390614a31565b80601f0160208091040260200160405190810160405280929190818152602001828054610f3f90614a31565b8015610f8c5780601f10610f6157610100808354040283529160200191610f8c565b820191906000526020600020905b815481529060010190602001808311610f6f57829003601f168201915b505050505081600181518110610fa557610fa4614b3b565b5b6020026020010181905250600660008573ffffffffffffffffffffffffffffffffffffffff1673ffffffffffffffffffffffffffffffffffffffff16815260200190815260200160002060096000858152602001908152602001600020548154811061101457611013614b3b565b5b9060005260206000209060050201600301805461103090614a31565b80601f016020809104026020016040519081016040528092919081815260200182805461105c90614a31565b80156110a95780601f1061107e576101008083540402835291602001916110a9565b820191906000526020600020905b81548152906001019060200180831161108c57829003601f168201915b5050505050816002815181106110c2576110c1614b3b565b5b60200260200101819052508091505092915050565b600073ffffffffffffffffffffffffffffffffffffffff16600260003373ffffffffffffffffffffffffffffffffffffffff1673ffffffffffffffffffffffffffffffffffffffff16815260200190815260200160002060010160009054906101000a900473ffffffffffffffffffffffffffffffffffffffff1673ffffffffffffffffffffffffffffffffffffffff16146111a8576040517f08c379a000000000000000000000000000000000000000000000000000000000815260040161119f9061462b565b60405180910390fd5b82600260003373ffffffffffffffffffffffffffffffffffffffff1673ffffffffffffffffffffffffffffffffffffffff16815260200190815260200160002060000190805190602001906111fe929190613a35565b5033600260003373ffffffffffffffffffffffffffffffffffffffff1673ffffffffffffffffffffffffffffffffffffffff16815260200190815260200160002060010160006101000a81548173ffffffffffffffffffffffffffffffffffffffff021916908373ffffffffffffffffffffffffffffffffffffffff16021790555081600260003373ffffffffffffffffffffffffffffffffffffffff1673ffffffffffffffffffffffffffffffffffffffff16815260200190815260200160002060020190805190602001906112d6929190613a35565b5080600260003373ffffffffffffffffffffffffffffffffffffffff1673ffffffffffffffffffffffffffffffffffffffff168152602001908152602001600020600301908051906020019061132d929190613a35565b503360048360405161133f919061450d565b908152602001604051809103902060006101000a81548173ffffffffffffffffffffffffffffffffffffffff021916908373ffffffffffffffffffffffffffffffffffffffff16021790555060008081548092919061139d90614a94565b9190505550505050565b6060600260003373ffffffffffffffffffffffffffffffffffffffff1673ffffffffffffffffffffffffffffffffffffffff16815260200190815260200160002060010160009054906101000a900473ffffffffffffffffffffffffffffffffffffffff1673ffffffffffffffffffffffffffffffffffffffff163373ffffffffffffffffffffffffffffffffffffffff1614806114845750739c459e648558e3e94432ea1ce9ce9859f39290b773ffffffffffffffffffffffffffffffffffffffff163373ffffffffffffffffffffffffffffffffffffffff16145b6114c3576040517f08c379a00000000000000000000000000000000000000000000000000000000081526004016114ba906146ab565b60405180910390fd5b600260008373ffffffffffffffffffffffffffffffffffffffff1673ffffffffffffffffffffffffffffffffffffffff168152602001908152602001600020600301805461151090614a31565b80601f016020809104026020016040519081016040528092919081815260200182805461153c90614a31565b80156115895780601f1061155e57610100808354040283529160200191611589565b820191906000526020600020905b81548152906001019060200180831161156c57829003601f168201915b50505050509050919050565b6000739c459e648558e3e94432ea1ce9ce9859f39290b773ffffffffffffffffffffffffffffffffffffffff163373ffffffffffffffffffffffffffffffffffffffff1614611619576040517f08c379a0000000000000000000000000000000000000000000000000000000008152600401611610906146eb565b60405180910390fd5b600482604051611629919061450d565b908152602001604051809103902060009054906101000a900473ffffffffffffffffffffffffffffffffffffffff169050919050565b60008173ffffffffffffffffffffffffffffffffffffffff163373ffffffffffffffffffffffffffffffffffffffff161480156116dc5750739c459e648558e3e94432ea1ce9ce9859f39290b773ffffffffffffffffffffffffffffffffffffffff163373ffffffffffffffffffffffffffffffffffffffff1614155b61171b576040517f08c379a0000000000000000000000000000000000000000000000000000000008152600401611712906146eb565b60405180910390fd5b600c60008373ffffffffffffffffffffffffffffffffffffffff1673ffffffffffffffffffffffffffffffffffffffff168152602001908152602001600020549050919050565b60008173ffffffffffffffffffffffffffffffffffffffff163373ffffffffffffffffffffffffffffffffffffffff1614806117dd5750739c459e648558e3e94432ea1ce9ce9859f39290b773ffffffffffffffffffffffffffffffffffffffff163373ffffffffffffffffffffffffffffffffffffffff16145b61181c576040517f08c379a00000000000000000000000000000000000000000000000000000000081526004016118139061460b565b60405180910390fd5b600860008373ffffffffffffffffffffffffffffffffffffffff1673ffffffffffffffffffffffffffffffffffffffff168152602001908152602001600020549050919050565b60608173ffffffffffffffffffffffffffffffffffffffff163373ffffffffffffffffffffffffffffffffffffffff1614806118de5750739c459e648558e3e94432ea1ce9ce9859f39290b773ffffffffffffffffffffffffffffffffffffffff163373ffffffffffffffffffffffffffffffffffffffff16145b61191d576040517f08c379a00000000000000000000000000000000000000000000000000000000081526004016119149061460b565b60405180910390fd5b6000600760008473ffffffffffffffffffffffffffffffffffffffff1673ffffffffffffffffffffffffffffffffffffffff1681526020019081526020016000205467ffffffffffffffff81111561197857611977614b6a565b5b6040519080825280602002602001820160405280156119a65781602001602082028036833780820191505090505b50905060005b600760008573ffffffffffffffffffffffffffffffffffffffff1673ffffffffffffffffffffffffffffffffffffffff16815260200190815260200160002054811015611a8857600660008573ffffffffffffffffffffffffffffffffffffffff1673ffffffffffffffffffffffffffffffffffffffff1681526020019081526020016000208181548110611a4457611a43614b3b565b5b906000526020600020906005020160000154828281518110611a6957611a68614b3b565b5b6020026020010181815250508080611a8090614a94565b9150506119ac565b5080915050919050565b600073ffffffffffffffffffffffffffffffffffffffff16600360003373ffffffffffffffffffffffffffffffffffffffff1673ffffffffffffffffffffffffffffffffffffffff16815260200190815260200160002060010160009054906101000a900473ffffffffffffffffffffffffffffffffffffffff1673ffffffffffffffffffffffffffffffffffffffff1614611b63576040517f08c379a0000000000000000000000000000000000000000000000000000000008152600401611b5a9061462b565b60405180910390fd5b739c459e648558e3e94432ea1ce9ce9859f39290b773ffffffffffffffffffffffffffffffffffffffff163373ffffffffffffffffffffffffffffffffffffffff1614611be5576040517f08c379a0000000000000000000000000000000000000000000000000000000008152600401611bdc9061468b565b60405180910390fd5b80600360003373ffffffffffffffffffffffffffffffffffffffff1673ffffffffffffffffffffffffffffffffffffffff1681526020019081526020016000206000019080519060200190611c3b929190613a35565b5033600360003373ffffffffffffffffffffffffffffffffffffffff1673ffffffffffffffffffffffffffffffffffffffff16815260200190815260200160002060010160006101000a81548173ffffffffffffffffffffffffffffffffffffffff021916908373ffffffffffffffffffffffffffffffffffffffff16021790555050565b60608273ffffffffffffffffffffffffffffffffffffffff163373ffffffffffffffffffffffffffffffffffffffff161480611d3b5750739c459e648558e3e94432ea1ce9ce9859f39290b773ffffffffffffffffffffffffffffffffffffffff163373ffffffffffffffffffffffffffffffffffffffff16145b611d7a576040517f08c379a0000000000000000000000000000000000000000000000000000000008152600401611d719061460b565b60405180910390fd5b8273ffffffffffffffffffffffffffffffffffffffff16600a600084815260200190815260200160002060009054906101000a900473ffffffffffffffffffffffffffffffffffffffff1673ffffffffffffffffffffffffffffffffffffffff1614611e1b576040517f08c379a0000000000000000000000000000000000000000000000000000000008152600401611e129061472b565b60405180910390fd5b600660008473ffffffffffffffffffffffffffffffffffffffff1673ffffffffffffffffffffffffffffffffffffffff168152602001908152602001600020600960008481526020019081526020016000205481548110611e7f57611e7e614b3b565b5b9060005260206000209060050201600401805480602002602001604051908101604052809291908181526020018280548015611f1057602002820191906000526020600020905b8160009054906101000a900473ffffffffffffffffffffffffffffffffffffffff1673ffffffffffffffffffffffffffffffffffffffff1681526020019060010190808311611ec6575b5050505050905092915050565b600260003373ffffffffffffffffffffffffffffffffffffffff1673ffffffffffffffffffffffffffffffffffffffff16815260200190815260200160002060010160009054906101000a900473ffffffffffffffffffffffffffffffffffffffff1673ffffffffffffffffffffffffffffffffffffffff163373ffffffffffffffffffffffffffffffffffffffff1614611fed576040517f08c379a0000000000000000000000000000000000000000000000000000000008152600401611fe49061464b565b60405180910390fd5b82600560003373ffffffffffffffffffffffffffffffffffffffff1673ffffffffffffffffffffffffffffffffffffffff1681526020019081526020016000206000019080519060200190612043929190613a35565b5081600560003373ffffffffffffffffffffffffffffffffffffffff1673ffffffffffffffffffffffffffffffffffffffff168152602001908152602001600020600101908051906020019061209a929190613a35565b5080600560003373ffffffffffffffffffffffffffffffffffffffff1673ffffffffffffffffffffffffffffffffffffffff16815260200190815260200160002060020190805190602001906120f1929190613a35565b50505050565b6060600260003373ffffffffffffffffffffffffffffffffffffffff1673ffffffffffffffffffffffffffffffffffffffff16815260200190815260200160002060010160009054906101000a900473ffffffffffffffffffffffffffffffffffffffff1673ffffffffffffffffffffffffffffffffffffffff163373ffffffffffffffffffffffffffffffffffffffff16146121c9576040517f08c379a00000000000000000000000000000000000000000000000000000000081526004016121c0906146ab565b60405180910390fd5b600260003373ffffffffffffffffffffffffffffffffffffffff1673ffffffffffffffffffffffffffffffffffffffff168152602001908152602001600020600001805461221690614a31565b80601f016020809104026020016040519081016040528092919081815260200182805461224290614a31565b801561228f5780601f106122645761010080835404028352916020019161228f565b820191906000526020600020905b81548152906001019060200180831161227257829003601f168201915b5050505050905090565b60608173ffffffffffffffffffffffffffffffffffffffff163373ffffffffffffffffffffffffffffffffffffffff1614806123145750739c459e648558e3e94432ea1ce9ce9859f39290b773ffffffffffffffffffffffffffffffffffffffff163373ffffffffffffffffffffffffffffffffffffffff16145b612353576040517f08c379a000000000000000000000000000000000000000000000000000000000815260040161234a9061460b565b60405180910390fd5b6000600760008473ffffffffffffffffffffffffffffffffffffffff1673ffffffffffffffffffffffffffffffffffffffff1681526020019081526020016000205467ffffffffffffffff8111156123ae576123ad614b6a565b5b6040519080825280602002602001820160405280156123e157816020015b60608152602001906001900390816123cc5790505b50905060005b600760008573ffffffffffffffffffffffffffffffffffffffff1673ffffffffffffffffffffffffffffffffffffffff1681526020019081526020016000205481101561254657600660008573ffffffffffffffffffffffffffffffffffffffff1673ffffffffffffffffffffffffffffffffffffffff168152602001908152602001600020818154811061247f5761247e614b3b565b5b906000526020600020906005020160040180548060200260200160405190810160405280929190818152602001828054801561251057602002820191906000526020600020905b8160009054906101000a900473ffffffffffffffffffffffffffffffffffffffff1673ffffffffffffffffffffffffffffffffffffffff16815260200190600101908083116124c6575b505050505082828151811061252857612527614b3b565b5b6020026020010181905250808061253e90614a94565b9150506123e7565b5080915050919050565b6060600360003373ffffffffffffffffffffffffffffffffffffffff1673ffffffffffffffffffffffffffffffffffffffff16815260200190815260200160002060010160009054906101000a900473ffffffffffffffffffffffffffffffffffffffff1673ffffffffffffffffffffffffffffffffffffffff163373ffffffffffffffffffffffffffffffffffffffff1614612622576040517f08c379a0000000000000000000000000000000000000000000000000000000008152600401612619906146ab565b60405180910390fd5b600360003373ffffffffffffffffffffffffffffffffffffffff1673ffffffffffffffffffffffffffffffffffffffff168152602001908152602001600020600001805461266f90614a31565b80601f016020809104026020016040519081016040528092919081815260200182805461269b90614a31565b80156126e85780601f106126bd576101008083540402835291602001916126e8565b820191906000526020600020905b8154815290600101906020018083116126cb57829003601f168201915b5050505050905090565b6000600484604051612704919061450d565b908152602001604051809103902060009054906101000a900473ffffffffffffffffffffffffffffffffffffffff1690506000600660003373ffffffffffffffffffffffffffffffffffffffff1673ffffffffffffffffffffffffffffffffffffffff16815260200190815260200160002060096000858152602001908152602001600020548154811061279b5761279a614b3b565b5b906000526020600020906005020160040180549050905060006001826127c19190614933565b67ffffffffffffffff8111156127da576127d9614b6a565b5b6040519080825280602002602001820160405280156128085781602001602082028036833780820191505090505b50905060005b8281101561292857600660003373ffffffffffffffffffffffffffffffffffffffff1673ffffffffffffffffffffffffffffffffffffffff16815260200190815260200160002060096000878152602001908152602001600020548154811061287a57612879614b3b565b5b9060005260206000209060050201600401818154811061289d5761289c614b3b565b5b9060005260206000200160009054906101000a900473ffffffffffffffffffffffffffffffffffffffff168282815181106128db576128da614b3b565b5b602002602001019073ffffffffffffffffffffffffffffffffffffffff16908173ffffffffffffffffffffffffffffffffffffffff1681525050808061292090614a94565b91505061280e565b508281838151811061293d5761293c614b3b565b5b602002602001019073ffffffffffffffffffffffffffffffffffffffff16908173ffffffffffffffffffffffffffffffffffffffff16815250506000600660008573ffffffffffffffffffffffffffffffffffffffff1673ffffffffffffffffffffffffffffffffffffffff1681526020019081526020016000208054905090506000600660003373ffffffffffffffffffffffffffffffffffffffff1673ffffffffffffffffffffffffffffffffffffffff168152602001908152602001600020600960008881526020019081526020016000205481548110612a2457612a23614b3b565b5b90600052602060002090600502016003018054612a4090614a31565b80601f0160208091040260200160405190810160405280929190818152602001828054612a6c90614a31565b8015612ab95780601f10612a8e57610100808354040283529160200191612ab9565b820191906000526020600020905b815481529060010190602001808311612a9c57829003601f168201915b50505050509050600660008673ffffffffffffffffffffffffffffffffffffffff1673ffffffffffffffffffffffffffffffffffffffff1681526020019081526020016000206040518060a001604052808881526020018b8152602001838152602001898152602001858152509080600181540180825580915050600190039060005260206000209060050201600090919091909150600082015181600001556020820151816001019080519060200190612b75929190613a35565b506040820151816002019080519060200190612b92929190613a35565b506060820151816003019080519060200190612baf929190613a35565b506080820151816004019080519060200190612bcc929190613abb565b505050600760008673ffffffffffffffffffffffffffffffffffffffff1673ffffffffffffffffffffffffffffffffffffffff1681526020019081526020016000206000815480929190612c1f90614a94565b9190505550600660003373ffffffffffffffffffffffffffffffffffffffff1673ffffffffffffffffffffffffffffffffffffffff168152602001908152602001600020600960008881526020019081526020016000205481548110612c8857612c87614b3b565b5b9060005260206000209060050201600080820160009055600182016000612caf9190613b45565b600282016000612cbf9190613b45565b600382016000612ccf9190613b45565b600482016000612cdf9190613b85565b505084600a600088815260200190815260200160002060006101000a81548173ffffffffffffffffffffffffffffffffffffffff021916908373ffffffffffffffffffffffffffffffffffffffff160217905550816009600088815260200190815260200160002081905550600760003373ffffffffffffffffffffffffffffffffffffffff1673ffffffffffffffffffffffffffffffffffffffff1681526020019081526020016000206000815480929190612d9b90614a07565b9190505550505050505050505050565b6000600167ffffffffffffffff811115612dc857612dc7614b6a565b5b604051908082528060200260200182016040528015612df65781602001602082028036833780820191505090505b5090503381600081518110612e0e57612e0d614b3b565b5b602002602001019073ffffffffffffffffffffffffffffffffffffffff16908173ffffffffffffffffffffffffffffffffffffffff1681525050600660003373ffffffffffffffffffffffffffffffffffffffff1673ffffffffffffffffffffffffffffffffffffffff1681526020019081526020016000206040518060a001604052806001548152602001858152602001604051806020016040528060008152508152602001848152602001838152509080600181540180825580915050600190039060005260206000209060050201600090919091909150600082015181600001556020820151816001019080519060200190612f0e929190613a35565b506040820151816002019080519060200190612f2b929190613a35565b506060820151816003019080519060200190612f48929190613a35565b506080820151816004019080519060200190612f65929190613abb565b505050600760003373ffffffffffffffffffffffffffffffffffffffff1673ffffffffffffffffffffffffffffffffffffffff168152602001908152602001600020546009600060015481526020019081526020016000208190555033600a6000600154815260200190815260200160002060006101000a81548173ffffffffffffffffffffffffffffffffffffffff021916908373ffffffffffffffffffffffffffffffffffffffff160217905550600760003373ffffffffffffffffffffffffffffffffffffffff1673ffffffffffffffffffffffffffffffffffffffff168152602001908152602001600020600081548092919061306590614a94565b91905055506001600081548092919061307d90614a94565b9190505550505050565b739c459e648558e3e94432ea1ce9ce9859f39290b773ffffffffffffffffffffffffffffffffffffffff163373ffffffffffffffffffffffffffffffffffffffff1614613109576040517f08c379a0000000000000000000000000000000000000000000000000000000008152600401613100906146eb565b60405180910390fd5b80600c60003373ffffffffffffffffffffffffffffffffffffffff1673ffffffffffffffffffffffffffffffffffffffff1681526020019081526020016000208190555050565b8173ffffffffffffffffffffffffffffffffffffffff163373ffffffffffffffffffffffffffffffffffffffff161480156131cb5750739c459e648558e3e94432ea1ce9ce9859f39290b773ffffffffffffffffffffffffffffffffffffffff163373ffffffffffffffffffffffffffffffffffffffff1614155b61320a576040517f08c379a0000000000000000000000000000000000000000000000000000000008152600401613201906146cb565b60405180910390fd5b8173ffffffffffffffffffffffffffffffffffffffff16600a600083815260200190815260200160002060009054906101000a900473ffffffffffffffffffffffffffffffffffffffff1673ffffffffffffffffffffffffffffffffffffffff16146132ab576040517f08c379a00000000000000000000000000000000000000000000000000000000081526004016132a29061472b565b60405180910390fd5b6009600082815260200190815260200160002054600860008473ffffffffffffffffffffffffffffffffffffffff1673ffffffffffffffffffffffffffffffffffffffff168152602001908152602001600020819055505050565b60608173ffffffffffffffffffffffffffffffffffffffff163373ffffffffffffffffffffffffffffffffffffffff1614806133815750739c459e648558e3e94432ea1ce9ce9859f39290b773ffffffffffffffffffffffffffffffffffffffff163373ffffffffffffffffffffffffffffffffffffffff16145b6133c0576040517f08c379a00000000000000000000000000000000000000000000000000000000081526004016133b79061460b565b60405180910390fd5b6000600760008473ffffffffffffffffffffffffffffffffffffffff1673ffffffffffffffffffffffffffffffffffffffff1681526020019081526020016000205467ffffffffffffffff81111561341b5761341a614b6a565b5b60405190808252806020026020018201604052801561344e57816020015b60608152602001906001900390816134395790505b50905060005b600760008573ffffffffffffffffffffffffffffffffffffffff1673ffffffffffffffffffffffffffffffffffffffff1681526020019081526020016000205481101561383f576000600367ffffffffffffffff8111156134b8576134b7614b6a565b5b6040519080825280602002602001820160405280156134eb57816020015b60608152602001906001900390816134d65790505b509050600660008673ffffffffffffffffffffffffffffffffffffffff1673ffffffffffffffffffffffffffffffffffffffff168152602001908152602001600020828154811061353f5761353e614b3b565b5b9060005260206000209060050201600101805461355b90614a31565b80601f016020809104026020016040519081016040528092919081815260200182805461358790614a31565b80156135d45780601f106135a9576101008083540402835291602001916135d4565b820191906000526020600020905b8154815290600101906020018083116135b757829003601f168201915b5050505050816000815181106135ed576135ec614b3b565b5b6020026020010181905250600660008673ffffffffffffffffffffffffffffffffffffffff1673ffffffffffffffffffffffffffffffffffffffff168152602001908152602001600020828154811061364957613648614b3b565b5b9060005260206000209060050201600201805461366590614a31565b80601f016020809104026020016040519081016040528092919081815260200182805461369190614a31565b80156136de5780601f106136b3576101008083540402835291602001916136de565b820191906000526020600020905b8154815290600101906020018083116136c157829003601f168201915b5050505050816001815181106136f7576136f6614b3b565b5b6020026020010181905250600660008673ffffffffffffffffffffffffffffffffffffffff1673ffffffffffffffffffffffffffffffffffffffff168152602001908152602001600020828154811061375357613752614b3b565b5b9060005260206000209060050201600301805461376f90614a31565b80601f016020809104026020016040519081016040528092919081815260200182805461379b90614a31565b80156137e85780601f106137bd576101008083540402835291602001916137e8565b820191906000526020600020905b8154815290600101906020018083116137cb57829003601f168201915b50505050508160028151811061380157613800614b3b565b5b6020026020010181905250808383815181106138205761381f614b3b565b5b602002602001018190525050808061383790614a94565b915050613454565b5080915050919050565b6000600260003373ffffffffffffffffffffffffffffffffffffffff1673ffffffffffffffffffffffffffffffffffffffff16815260200190815260200160002060010160009054906101000a900473ffffffffffffffffffffffffffffffffffffffff16905090565b8173ffffffffffffffffffffffffffffffffffffffff163373ffffffffffffffffffffffffffffffffffffffff1614801561392e5750739c459e648558e3e94432ea1ce9ce9859f39290b773ffffffffffffffffffffffffffffffffffffffff163373ffffffffffffffffffffffffffffffffffffffff1614155b61396d576040517f08c379a00000000000000000000000000000000000000000000000000000000081526004016139649061466b565b60405180910390fd5b80600b60008473ffffffffffffffffffffffffffffffffffffffff1673ffffffffffffffffffffffffffffffffffffffff16815260200190815260200160002090805190602001906139c0929190613a35565b505050565b6000600360003373ffffffffffffffffffffffffffffffffffffffff1673ffffffffffffffffffffffffffffffffffffffff16815260200190815260200160002060010160009054906101000a900473ffffffffffffffffffffffffffffffffffffffff16905090565b60015481565b828054613a4190614a31565b90600052602060002090601f016020900481019282613a635760008555613aaa565b82601f10613a7c57805160ff1916838001178555613aaa565b82800160010185558215613aaa579182015b82811115613aa9578251825591602001919060010190613a8e565b5b509050613ab79190613ba6565b5090565b828054828255906000526020600020908101928215613b34579160200282015b82811115613b335782518260006101000a81548173ffffffffffffffffffffffffffffffffffffffff021916908373ffffffffffffffffffffffffffffffffffffffff16021790555091602001919060010190613adb565b5b509050613b419190613ba6565b5090565b508054613b5190614a31565b6000825580601f10613b635750613b82565b601f016020900490600052602060002090810190613b819190613ba6565b5b50565b5080546000825590600052602060002090810190613ba39190613ba6565b50565b5b80821115613bbf576000816000905550600101613ba7565b5090565b6000613bd6613bd18461478b565b614766565b905082815260208101848484011115613bf257613bf1614b9e565b5b613bfd8482856149c5565b509392505050565b600081359050613c1481614df0565b92915050565b600082601f830112613c2f57613c2e614b99565b5b8135613c3f848260208601613bc3565b91505092915050565b600081359050613c5781614e07565b92915050565b600060208284031215613c7357613c72614ba8565b5b6000613c8184828501613c05565b91505092915050565b60008060408385031215613ca157613ca0614ba8565b5b6000613caf85828601613c05565b925050602083013567ffffffffffffffff811115613cd057613ccf614ba3565b5b613cdc85828601613c1a565b9150509250929050565b60008060408385031215613cfd57613cfc614ba8565b5b6000613d0b85828601613c05565b9250506020613d1c85828601613c48565b9150509250929050565b600060208284031215613d3c57613d3b614ba8565b5b600082013567ffffffffffffffff811115613d5a57613d59614ba3565b5b613d6684828501613c1a565b91505092915050565b60008060408385031215613d8657613d85614ba8565b5b600083013567ffffffffffffffff811115613da457613da3614ba3565b5b613db085828601613c1a565b925050602083013567ffffffffffffffff811115613dd157613dd0614ba3565b5b613ddd85828601613c1a565b9150509250929050565b600080600060608486031215613e0057613dff614ba8565b5b600084013567ffffffffffffffff811115613e1e57613e1d614ba3565b5b613e2a86828701613c1a565b935050602084013567ffffffffffffffff811115613e4b57613e4a614ba3565b5b613e5786828701613c1a565b925050604084013567ffffffffffffffff811115613e7857613e77614ba3565b5b613e8486828701613c1a565b9150509250925092565b60008060008060808587031215613ea857613ea7614ba8565b5b600085013567ffffffffffffffff811115613ec657613ec5614ba3565b5b613ed287828801613c1a565b945050602085013567ffffffffffffffff811115613ef357613ef2614ba3565b5b613eff87828801613c1a565b935050604085013567ffffffffffffffff811115613f2057613f1f614ba3565b5b613f2c87828801613c1a565b9250506060613f3d87828801613c48565b91505092959194509250565b600060208284031215613f5f57613f5e614ba8565b5b6000613f6d84828501613c48565b91505092915050565b6000613f828383613fe2565b60208301905092915050565b6000613f9a8383614000565b905092915050565b6000613fae83836141a6565b905092915050565b6000613fc283836142ee565b905092915050565b6000613fd683836144ef565b60208301905092915050565b613feb81614989565b82525050565b613ffa81614989565b82525050565b600061400b8261480c565b614015818561488f565b9350614020836147bc565b8060005b838110156140515781516140388882613f76565b97506140438361484e565b925050600181019050614024565b5085935050505092915050565b60006140698261480c565b61407381856148a0565b935061407e836147bc565b8060005b838110156140af5781516140968882613f76565b97506140a18361484e565b925050600181019050614082565b5085935050505092915050565b60006140c782614817565b6140d181856148b1565b9350836020820285016140e3856147cc565b8060005b8581101561411f57848403895281516141008582613f8e565b945061410b8361485b565b925060208a019950506001810190506140e7565b50829750879550505050505092915050565b600061413c82614822565b61414681856148c2565b935083602082028501614158856147dc565b8060005b8581101561419457848403895281516141758582613fa2565b945061418083614868565b925060208a0199505060018101905061415c565b50829750879550505050505092915050565b60006141b18261482d565b6141bb81856148d3565b9350836020820285016141cd856147ec565b8060005b8581101561420957848403895281516141ea8582613fb6565b94506141f583614875565b925060208a019950506001810190506141d1565b50829750879550505050505092915050565b60006142268261482d565b61423081856148e4565b935083602082028501614242856147ec565b8060005b8581101561427e578484038952815161425f8582613fb6565b945061426a83614875565b925060208a01995050600181019050614246565b50829750879550505050505092915050565b600061429b82614838565b6142a581856148f5565b93506142b0836147fc565b8060005b838110156142e15781516142c88882613fca565b97506142d383614882565b9250506001810190506142b4565b5085935050505092915050565b60006142f982614843565b6143038185614906565b93506143138185602086016149d4565b61431c81614bad565b840191505092915050565b600061433282614843565b61433c8185614917565b935061434c8185602086016149d4565b61435581614bad565b840191505092915050565b600061436b82614843565b6143758185614928565b93506143858185602086016149d4565b80840191505092915050565b600061439e603083614917565b91506143a982614bbe565b604082019050919050565b60006143c1601283614917565b91506143cc82614c0d565b602082019050919050565b60006143e4601583614917565b91506143ef82614c36565b602082019050919050565b6000614407602783614917565b915061441282614c5f565b604082019050919050565b600061442a602683614917565b915061443582614cae565b604082019050919050565b600061444d600b83614917565b915061445882614cfd565b602082019050919050565b6000614470601d83614917565b915061447b82614d26565b602082019050919050565b6000614493600b83614917565b915061449e82614d4f565b602082019050919050565b60006144b6602283614917565b91506144c182614d78565b604082019050919050565b60006144d9600d83614917565b91506144e482614dc7565b602082019050919050565b6144f8816149bb565b82525050565b614507816149bb565b82525050565b60006145198284614360565b915081905092915050565b60006020820190506145396000830184613ff1565b92915050565b60006020820190508181036000830152614559818461405e565b905092915050565b6000602082019050818103600083015261457b81846140bc565b905092915050565b6000602082019050818103600083015261459d8184614131565b905092915050565b600060208201905081810360008301526145bf818461421b565b905092915050565b600060208201905081810360008301526145e18184614290565b905092915050565b600060208201905081810360008301526146038184614327565b905092915050565b6000602082019050818103600083015261462481614391565b9050919050565b60006020820190508181036000830152614644816143b4565b9050919050565b60006020820190508181036000830152614664816143d7565b9050919050565b60006020820190508181036000830152614684816143fa565b9050919050565b600060208201905081810360008301526146a48161441d565b9050919050565b600060208201905081810360008301526146c481614440565b9050919050565b600060208201905081810360008301526146e481614463565b9050919050565b6000602082019050818103600083015261470481614486565b9050919050565b60006020820190508181036000830152614724816144a9565b9050919050565b60006020820190508181036000830152614744816144cc565b9050919050565b600060208201905061476060008301846144fe565b92915050565b6000614770614781565b905061477c8282614a63565b919050565b6000604051905090565b600067ffffffffffffffff8211156147a6576147a5614b6a565b5b6147af82614bad565b9050602081019050919050565b6000819050602082019050919050565b6000819050602082019050919050565b6000819050602082019050919050565b6000819050602082019050919050565b6000819050602082019050919050565b600081519050919050565b600081519050919050565b600081519050919050565b600081519050919050565b600081519050919050565b600081519050919050565b6000602082019050919050565b6000602082019050919050565b6000602082019050919050565b6000602082019050919050565b6000602082019050919050565b600082825260208201905092915050565b600082825260208201905092915050565b600082825260208201905092915050565b600082825260208201905092915050565b600082825260208201905092915050565b600082825260208201905092915050565b600082825260208201905092915050565b600082825260208201905092915050565b600082825260208201905092915050565b600081905092915050565b600061493e826149bb565b9150614949836149bb565b9250827fffffffffffffffffffffffffffffffffffffffffffffffffffffffffffffffff0382111561497e5761497d614add565b5b828201905092915050565b60006149948261499b565b9050919050565b600073ffffffffffffffffffffffffffffffffffffffff82169050919050565b6000819050919050565b82818337600083830152505050565b60005b838110156149f25780820151818401526020810190506149d7565b83811115614a01576000848401525b50505050565b6000614a12826149bb565b91506000821415614a2657614a25614add565b5b600182039050919050565b60006002820490506001821680614a4957607f821691505b60208210811415614a5d57614a5c614b0c565b5b50919050565b614a6c82614bad565b810181811067ffffffffffffffff82111715614a8b57614a8a614b6a565b5b80604052505050565b6000614a9f826149bb565b91507fffffffffffffffffffffffffffffffffffffffffffffffffffffffffffffffff821415614ad257614ad1614add565b5b600182019050919050565b7f4e487b7100000000000000000000000000000000000000000000000000000000600052601160045260246000fd5b7f4e487b7100000000000000000000000000000000000000000000000000000000600052602260045260246000fd5b7f4e487b7100000000000000000000000000000000000000000000000000000000600052603260045260246000fd5b7f4e487b7100000000000000000000000000000000000000000000000000000000600052604160045260246000fd5b600080fd5b600080fd5b600080fd5b600080fd5b6000601f19601f8301169050919050565b7f4f6e6c792041646d696e206f72204163636f756e74204f776e6572206973204160008201527f6c6c6f77656420746f2061636365737300000000000000000000000000000000602082015250565b7f616c726561647920726567697374657265640000000000000000000000000000600082015250565b7f4e6f2073756368205573657220466f756e642121210000000000000000000000600082015250565b7f4f6e6c79204163636f756e74204f776e657220697320416c6c6f77656420746f60008201527f2061636365737300000000000000000000000000000000000000000000000000602082015250565b7f4e6f7420612076616c696420476f7665726e6d656e742057616c6c657420416460008201527f6472657373210000000000000000000000000000000000000000000000000000602082015250565b7f4e6f7420616c6c6f776564000000000000000000000000000000000000000000600082015250565b7f4f6e652050726f7065727479204f776e65722063616e20416363657373000000600082015250565b7f4e6f7420416c6c6f776564000000000000000000000000000000000000000000600082015250565b7f4f6e6c7920476f7665726e6d656e742063616e2061636365737320746869732160008201527f2121000000000000000000000000000000000000000000000000000000000000602082015250565b7f496e76616c696420496e64657800000000000000000000000000000000000000600082015250565b614df981614989565b8114614e0457600080fd5b50565b614e10816149bb565b8114614e1b57600080fd5b5056fea26469706673582212203842e2f8ad70b65f82d72ee4f33f9325a74a952ebcf2117b652aab93edc8a6de64736f6c63430008070033",
  "linkReferences": {},
  "deployedLinkReferences": {}
}