{
  "_format": "hh-sol-artifact-1",
  "contractName": "Authentication",
  "sourceName": "contracts/Authentication.sol",
  "abi": [
    {
      "inputs": [],
      "stateMutability": "nonpayable",
      "type": "constructor"
    },
    {
      "inputs": [
        {
          "internalType": "string",
          "name": "pan",
          "type": "string"
        }
      ],
      "name": "checkPANDetails",
      "outputs": [
        {
          "internalType": "string",
          "name": "",
          "type": "string"
        }
      ],
      "stateMutability": "view",
      "type": "function"
    },
    {
      "inputs": [],
      "name": "getSignatureHash",
      "outputs": [
        {
          "internalType": "string",
          "name": "",
          "type": "string"
        }
      ],
      "stateMutability": "view",
      "type": "function"
    },
    {
      "inputs": [],
      "name": "getUserAddress",
      "outputs": [
        {
          "internalType": "address",
          "name": "",
          "type": "address"
        }
      ],
      "stateMutability": "view",
      "type": "function"
    },
    {
      "inputs": [],
      "name": "nbOfUsers",
      "outputs": [
        {
          "internalType": "uint256",
          "name": "",
          "type": "uint256"
        }
      ],
      "stateMutability": "view",
      "type": "function"
    },
    {
      "inputs": [
        {
          "internalType": "string",
          "name": "_signature",
          "type": "string"
        },
        {
          "internalType": "string",
          "name": "pan",
          "type": "string"
        }
      ],
      "name": "register",
      "outputs": [],
      "stateMutability": "nonpayable",
      "type": "function"
    }
  ],
  "bytecode": "0x608060405234801561001057600080fd5b5060008081905550610c4d806100276000396000f3fe608060405234801561001057600080fd5b50600436106100575760003560e01c8063126793231461005c57806331b2a8c21461007a5780633ffbd47f146100aa578063c127ae41146100c6578063ebc3eee8146100e4575b600080fd5b610064610102565b6040516100719190610951565b60405180910390f35b610094600480360381019061008f919061072e565b610108565b6040516100a191906108ef565b60405180910390f35b6100c460048036038101906100bf9190610777565b6101bd565b005b6100ce61040f565b6040516100db91906108ef565b60405180910390f35b6100ec6105b1565b6040516100f991906108d4565b60405180910390f35b60005481565b60606001151560028360405161011e91906108bd565b908152602001604051809103902060009054906101000a900460ff161515141561017f576040518060400160405280600681526020017f457869737473000000000000000000000000000000000000000000000000000081525090506101b8565b6040518060400160405280600a81526020017f4e6f74204578697374730000000000000000000000000000000000000000000081525090505b919050565b600073ffffffffffffffffffffffffffffffffffffffff16600160003373ffffffffffffffffffffffffffffffffffffffff1673ffffffffffffffffffffffffffffffffffffffff16815260200190815260200160002060010160009054906101000a900473ffffffffffffffffffffffffffffffffffffffff1673ffffffffffffffffffffffffffffffffffffffff161461028e576040517f08c379a000000000000000000000000000000000000000000000000000000000815260040161028590610911565b60405180910390fd5b81600160003373ffffffffffffffffffffffffffffffffffffffff1673ffffffffffffffffffffffffffffffffffffffff16815260200190815260200160002060000190805190602001906102e492919061061b565b5033600160003373ffffffffffffffffffffffffffffffffffffffff1673ffffffffffffffffffffffffffffffffffffffff16815260200190815260200160002060010160006101000a81548173ffffffffffffffffffffffffffffffffffffffff021916908373ffffffffffffffffffffffffffffffffffffffff16021790555080600160003373ffffffffffffffffffffffffffffffffffffffff1673ffffffffffffffffffffffffffffffffffffffff16815260200190815260200160002060020190805190602001906103bc92919061061b565b5060016002826040516103cf91906108bd565b908152602001604051809103902060006101000a81548160ff02191690831515021790555060008081548092919061040690610aca565b91905055505050565b6060600160003373ffffffffffffffffffffffffffffffffffffffff1673ffffffffffffffffffffffffffffffffffffffff16815260200190815260200160002060010160009054906101000a900473ffffffffffffffffffffffffffffffffffffffff1673ffffffffffffffffffffffffffffffffffffffff163373ffffffffffffffffffffffffffffffffffffffff16146104e1576040517f08c379a00000000000000000000000000000000000000000000000000000000081526004016104d890610931565b60405180910390fd5b600160003373ffffffffffffffffffffffffffffffffffffffff1673ffffffffffffffffffffffffffffffffffffffff168152602001908152602001600020600001805461052e90610a67565b80601f016020809104026020016040519081016040528092919081815260200182805461055a90610a67565b80156105a75780601f1061057c576101008083540402835291602001916105a7565b820191906000526020600020905b81548152906001019060200180831161058a57829003601f168201915b5050505050905090565b6000600160003373ffffffffffffffffffffffffffffffffffffffff1673ffffffffffffffffffffffffffffffffffffffff16815260200190815260200160002060010160009054906101000a900473ffffffffffffffffffffffffffffffffffffffff16905090565b82805461062790610a67565b90600052602060002090601f0160209004810192826106495760008555610690565b82601f1061066257805160ff1916838001178555610690565b82800160010185558215610690579182015b8281111561068f578251825591602001919060010190610674565b5b50905061069d91906106a1565b5090565b5b808211156106ba5760008160009055506001016106a2565b5090565b60006106d16106cc84610991565b61096c565b9050828152602081018484840111156106ed576106ec610ba5565b5b6106f8848285610a25565b509392505050565b600082601f83011261071557610714610ba0565b5b81356107258482602086016106be565b91505092915050565b60006020828403121561074457610743610baf565b5b600082013567ffffffffffffffff81111561076257610761610baa565b5b61076e84828501610700565b91505092915050565b6000806040838503121561078e5761078d610baf565b5b600083013567ffffffffffffffff8111156107ac576107ab610baa565b5b6107b885828601610700565b925050602083013567ffffffffffffffff8111156107d9576107d8610baa565b5b6107e585828601610700565b9150509250929050565b6107f8816109e9565b82525050565b6000610809826109c2565b61081381856109cd565b9350610823818560208601610a34565b61082c81610bb4565b840191505092915050565b6000610842826109c2565b61084c81856109de565b935061085c818560208601610a34565b80840191505092915050565b60006108756012836109cd565b915061088082610bc5565b602082019050919050565b6000610898600b836109cd565b91506108a382610bee565b602082019050919050565b6108b781610a1b565b82525050565b60006108c98284610837565b915081905092915050565b60006020820190506108e960008301846107ef565b92915050565b6000602082019050818103600083015261090981846107fe565b905092915050565b6000602082019050818103600083015261092a81610868565b9050919050565b6000602082019050818103600083015261094a8161088b565b9050919050565b600060208201905061096660008301846108ae565b92915050565b6000610976610987565b90506109828282610a99565b919050565b6000604051905090565b600067ffffffffffffffff8211156109ac576109ab610b71565b5b6109b582610bb4565b9050602081019050919050565b600081519050919050565b600082825260208201905092915050565b600081905092915050565b60006109f4826109fb565b9050919050565b600073ffffffffffffffffffffffffffffffffffffffff82169050919050565b6000819050919050565b82818337600083830152505050565b60005b83811015610a52578082015181840152602081019050610a37565b83811115610a61576000848401525b50505050565b60006002820490506001821680610a7f57607f821691505b60208210811415610a9357610a92610b42565b5b50919050565b610aa282610bb4565b810181811067ffffffffffffffff82111715610ac157610ac0610b71565b5b80604052505050565b6000610ad582610a1b565b91507fffffffffffffffffffffffffffffffffffffffffffffffffffffffffffffffff821415610b0857610b07610b13565b5b600182019050919050565b7f4e487b7100000000000000000000000000000000000000000000000000000000600052601160045260246000fd5b7f4e487b7100000000000000000000000000000000000000000000000000000000600052602260045260246000fd5b7f4e487b7100000000000000000000000000000000000000000000000000000000600052604160045260246000fd5b600080fd5b600080fd5b600080fd5b600080fd5b6000601f19601f8301169050919050565b7f616c726561647920726567697374657265640000000000000000000000000000600082015250565b7f4e6f7420616c6c6f77656400000000000000000000000000000000000000000060008201525056fea26469706673582212208049ccf791b0cd0b3d8200d93c24ac946585c0fc2fb0750e81a65362371281b064736f6c63430008070033",
  "linkReferences": {},
  "deployedLinkReferences": {}
}